:03000000020522D4
:0C05220078FFE4F6D8FD758189020569B8
:100B560053A87F1207E9120C82120C6B120BEC12CF
:100B66000BF912006E120C0643A88012098E80FE45
:03004B00020C7B29
:060C7B0085E71C53E5DFD4
:010C81003240
:0300530002004E5A
:04004E0053E57F32C5
:03006B0002095334
:10095300C0E0C0F0C083C082C0D075D000C000C06A
:1009630001C002C003C004C005C006C0071208408E
:10097300D007D006D005D004D003D002D001D000D8
:0B098300D0D0D082D083D0F0D0E03282
:0300830002000375
:10000300C0E0C0F0C083C082C0D075D000C000C0C3
:1000130001C002C003C004C005C006C007787F0644
:10002300E6C39404400576001202CAD007D006D076
:1000330005D004D003D002D001D000D0D0D082D0DC
:0600430083D0F0D0E03292
:0300A30002088AC6
:10088A00C0E0C0D075D000C000C007B21030102D33
:10089A00786D06E6D3943B40247600786706E6D363
:1008AA00943B40197600787006E6D39417400E768A
:1008BA0000786AE625E0FFF6BF80027601D007D00D
:0608CA0000D0D0D0E032A6
:070C6300E5E530E5FBAFE71A
:010C6A002267
:080C6B00E4F5ECF5EBF5F522D0
:0D0BEC0075B29275B47C43AA0243B2012297
:0D0BF90075C61875C28A43AA1043C20122B6
:10006E0075E30275E20643E3ECE4F5E475E66743F7
:03007E00A918229C
:080C7300E5E530E7FB8FE72205
:0D0C0600759E88759F01759F8143AB042288
:070C820075D928E4F58A2270
:1007E9007589FFE4F5D4F592F5E9F5807591F07511
:1007F900D50FF593F5EAF5887599FEF5D6F594F5D3
:100809009075A1FFF5D7F595F59875B1FFF5DAF56E
:1008190096F5A075B97FF5DBF59AF5B075C1F7F5D1
:10082900DCF59BF5C075ED02F5EEF5EFF5F175F325
:0708390018F5F275F40C2222
:1009FC00E53545346029786406E6C394324004E456
:100A0C00F6B211E535153570021534144534700FF6
:100A1C00E537600B8000753400753506E4F5372238
:100A5C00786DE6FF7876666025A6077867E6FF78FE
:100A6C007166601AA6077866E6FF787066600F7884
:0F0A7C0066A607786C06E6C394184002E4F622DB
:10084000D2157875E6FF7002D217EFB40102D21804
:10085000EFB40202D219EFB40302D21AEFB40402C9
:10086000D21BEFB40502D21CEFB40612786116E673
:100870007003785CF6786016E67003785EF678753B
:0A08800006E6C3940A4002E4F622E3
:100A8B00786B76127868760BE4786FF608F67867F1
:100A9B00F6786DF67866F67871F67876F6C21D788C
:0B0AAB0074F67864F6C212750D032289
:10098E00120A8B301502C215301708C217120C89C5
:10099E001200A6201803301904C218C219301A0505
:1009AE00C21A120AB6301B05C21B1209FC301CD328
:0709BE00C21C120A5C80CC90
:10091300785CE670FB7F087825E4F608DFFCE4FFEB
:10092300785BE6FEEFC39E5014120788FE74252FF2
:10093300F8A606740129F9E43AFA0F80E3E4785F34
:0F094300F6785C7601785FE6062425F8E6F5E79E
:010952002282
:030C93008F4A2263
:1009C50020200330213030200DC220751D00751EFA
:1009D50000751F4B800BC221751D00751E00751F0C
:1009E50053E4FFAB1DAA1EA91F8F82758300E41275
:0609F50007A10FBF08ED91
:0109FB0022D9
:100056001209C57869E6FF785D666007A6077F1115
:04006600120C9322C3
:100A2C00E4FFE58820E0030F8019E58820E1047FCE
:100A3C00028010E58820E2047F038007E58820E32C
:0F0A4C00027F04E58820E307E58820E2027F05AA
:010A5B002278
:10048300E4F53AE5406F600BE5416F60038F41226D
:100493008F4022E540653F7051E53F70030205211F
:1004A300E53C607A153CE53C7074853F3DE53B7067
:1004B30003753A01E53E14601414601B146018249C
:1004C30003705B753E01433D20753C3222753E024D
:1004D300433D60753C1422753E03433D80753C14D7
:1004E300E539C394FA5037053922E53F6025F53DD8
:1004F300E53B7003753A01E53E24FE600C14600B86
:100503002402700A433D4080058000433DC0E4F56A
:0F0513003E8005E4F53BF539753C0585403F22F8
:060C8900120A2C02048394
:1000A600E53A70030202C9E53D24BE70030201B5BC
:1000B60024FE700302028324C36014147003020139
:1000C600B524FD70030202B9244460030202C9E5A7
:1000D6003724FBB4070040030202C99000EF75F015
:1000E60003A4C58325F0C583730201040201260219
:1000F60001340201880201960201A40201B2786B62
:1001060006E6D39463400276127868E6B4020E7867
:100116006BE654037005D21D020272C21D02027202
:10012600786816E6C394015002760C020272786F64
:10013600067868E6FFB4021B301D0C786FE6D39490
:100146001D403C76018038786FE6D3941C403076AB
:1001560001802CEF640460117868E6FF640660098C
:10016600EF64096004EFB40B0C786FE6D3941E407D
:100176000E7601800A786FE6D3941F40027601025C
:100186000272787006E6D394174002E4F602027211
:10019600786706E6D3943B4002E4F6020272786E74
:1001A60006E6D3940740027601020272051822E59C
:1001B6003724FBB4070040030202C99001CF75F053
:1001C60003A4C58325F0C583730201E40202040279
:1001D600021102024D02025A020267020279786B8C
:1001E60016E6C39412500276637868E6B4020D7878
:1001F6006BE654037004D21D8002C21D806E7868BF
:1002060016E6C394015002760C8061786F16E6C339
:10021600940150317868E6FFB4020D786F301D0402
:10022600761D8021761C801DEF6404600EEF640647
:100236006009EF64096004EFB40B06786F761E80E0
:1002460004786F761F8025787016E6C394005002F6
:1002560076178018786716E6C394005002763B80BE
:100266000B786E16E6C39401500276077534007556
:1002760035C822E518D394004049151822E537B44D
:1002860005047F068036E537B406047F07802DE532
:1002960037B407047F088024E537B408047F098053
:1002A6001BE537B409047F0A8012E537B40A147FC8
:1002B6000B8009E539C3940F40097F05120C20E431
:0402C600786DF62237
:100B3100EF900B0B93FF788630E106E64402F680D6
:100B410004E644FDF6EF788630E205E64404F62239
:050B5100E644FBF62262
:1005AE00EF900B0B93FF788530E006E64401F68062
:1005BE0004E644FEF6EF788530E106E64402F68066
:1005CE0004E644FDF6EF788530E206E64404F68054
:1005DE0004E644FBF6EF788530E306E64408F68041
:1005EE0004E644F7F6EF788530E406E64410F6802C
:1005FE0004E644EFF6EF788530E506E64420F68013
:10060E0004E644DFF6EF20E60330E6077885E6449D
:0A061E0040F6227885E644BFF6227C
:10069E00EF900B0B93FF788430E006E64401F68072
:1006AE0004E644FEF6EF788430E106E64402F68076
:1006BE0004E644FDF6EF788430E206E64404F68064
:1006CE0004E644FBF6EF788430E306E64408F68051
:1006DE0004E644F7F6EF788430E406E64410F6803C
:1006EE0004E644EFF6EF788430E506E64420F68023
:1006FE0004E644DFF6EF788430E605E64440F62261
:05070E00E644BFF622E5
:10071300EF900B0B93FF788330E006E64401F680FD
:1007230004E644FEF6EF788330E106E64402F68001
:1007330004E644FDF6EF788330E206E64404F680EF
:1007430004E644FBF6EF788330E306E64408F680DC
:1007530004E644F7F6EF788330E406E64410F680C7
:1007630004E644EFF6EF788330E506E64420F680AE
:1007730004E644DFF6EF788330E605E64440F622EC
:05078300E644BFF62270
:1002CA00788176FF0876FF788006E6C39405400CAD
:1002DA00E4F6787E06E694044002E4F67880E6C303
:1002EA00950D40140876FF7590FF0876FF7598FF04
:1002FA0076FF7598FF020477787EE6FF705A788158
:10030A00E654FDF67877E630E0067882E654FEF6A3
:10031A007877E630E1067882E654FDF67877E630BB
:10032A00E2067882E654FBF67877E630E3067882CE
:10033A00E654F7F67877E630E4067882E654EFF684
:10034A007877E630E5067882E654DFF67877E620B5
:10035A00E60302047702041CEF640170597881E60F
:10036A0054FBF67878E630E0067882E654FEF678B2
:10037A0078E630E1067882E654FDF67878E630E2EF
:10038A00067882E654FBF67878E630E3067882E669
:10039A0054F7F67878E630E4067882E654EFF67891
:1003AA0078E630E5067882E654DFF67878E620E6E5
:1003BA0003020477805C787EE6FF6402705C7881D1
:1003CA00E654F7F67879E630E0067882E654FEF6E7
:1003DA007879E630E1067882E654FDF67879E630F7
:1003EA00E2067882E654FBF67879E630E30678820C
:1003FA00E654F7F67879E630E4067882E654EFF6C2
:10040A007879E630E5067882E654DFF67879E630E0
:10041A00E65B7882E654BFF68053EF6403704E7849
:10042A0081E654EFF6787AE630E0067882E654FE02
:10043A00F6787AE630E1067882E654FDF6787AE6CE
:10044A0030E2067882E654FBF6787AE630E30678FC
:10045A0082E654F7F6787AE630E4067882E654EFD4
:10046A00F6787AE630E5067882E654DFF67881E6B1
:09047A00F59008E6F598F59822CA
:010049002294
:100B0B003F065B4F666D7D077F6F005F7C585E74A1
:100B1B0006545C50781C6E773979713D76061E3819
:060B2B00373F736D3E40F0
:030C8F000136002B
:0F0BA2007F05782F740AF608DFFCE4F520F521B3
:010BB1002221
:100B76008F1BE51B75F00A84FF6003120B31E51B22
:090B860075F00A84AFF00205AE1F
:04008600786FE6FFAA
:10008A008F1BE51B75F00A84FF12069EE51B75F0AF
:07009A000A84AFF002071316
:0D0C1300752F0A75303375312A75322A228B
:1008D000EF14600E24FE600A24F76006240C700CEE
:1008E00080007870E6F5197867E6F51A30131AE596
:1008F00019C3940C5004D2028008D20374F4251951
:10090000F519E519700375190CAF19120B76AF1AAA
:0309100002008A58
:090C51007874E66002D322C3228C
:0C0C2D00302403301005E4FF1208D02230
:0E0BC200201105120C515005E4FF1208D0223C
:100AE100201105120C515021E536700D7536017833
:100AF10085E64440F67F14800DE4F5367885E644BA
:0A0B010040F6786BE6FF12008A222E
:100B8F00201105120C51500A7868E6FF120B7612ED
:030B9F00008622AB
:0C0C3900201105120C51500312008622FD
:0E0BD000201105120C5150057F03120B7622E6
:0E0BDE00201105120C5150057F0312008A22CF
:100BB200201105120C515007786EE6FF12008A22AE
:0C0C4500201105120C51500312008622F1
:01004A002293
:01005200228B
:01006A002273
:01008100225C
:01008200225B
:090C5A008F377534037535E8226B
:0D0C20008F377534057535DC787476DC226D
:10062800E5371207C3067B01065803065D05066217
:1006380006066207066708066C0906710A06760B45
:1006480006800C068A10068512068F1C0000069488
:10065800120BC2803A120AE18035120B8F803012D9
:100668000BD0802B120BDE8026120BB28021120CCD
:1006780045801C12004A8017120052801212006A2C
:10068800800D1200818008120C138003120C2D7843
:0606980074E66001162269
:0100A100223C
:100AB600120BA21206281200A112004953A87F7831
:100AC60083E67877F67884E67878F67885E6787936
:0B0AD600F67886E6787AF643A88022C6
:10052E00020B56E493A3F8E493A34003F68001F282
:10053E0008DFF48029E493A3F85407240CC8C333CE
:10054E00C4540F4420C8834004F456800146F6DF9D
:10055E00E4800B0102040810204080900C8FE47E92
:10056E00019360BCA3FF543F30E509541FFEE49392
:10057E00A360010ECF54C025E060A840B8E493A359
:10058E00FAE493A3F8E493A3C8C582C8CAC583CA84
:10059E00F0A3C8C582C8CAC583CADFE9DEE780BE3C
:010C92000061
:10078800BB010689828A83E0225002E722BBFE026F
:09079800E32289828A83E49322A2
:1007A100F8BB010DE58229F582E5833AF583E8F08E
:1007B100225006E92582C8F622BBFE05E92582C83A
:0207C100F22222
:1007C300D083D082F8E4937012740193700DA3A3C5
:1007D30093F8740193F5828883E4737402936860D9
:0607E300EFA3A3A380DFD9
:00000001FF
