:03000000020C5C93
:0C0C5C0078FFE4F6D8FD758187020B37A5
:100B370053A87F12078F120CAE120C97120C2812B3
:100B47000C3512006E120C4243A88012096D80FE0C
:03004B00020CA7FD
:060CA70085E71C53E5DFA8
:010CAD003214
:0300530002004E5A
:04004E0053E57F32C5
:03006B000208F98F
:1008F900C0E0C0F0C083C082C0D075D000C000C0C5
:1009090001C002C003C004C005C006C0071207E643
:10091900D007D006D005D004D003D002D001D00032
:0B092900D0D0D082D083D0F0D0E032DC
:0300830002000375
:10000300C0E0C0F0C083C082C0D075D000C000C0C3
:1000130001C002C003C004C005C006C007787D0646
:10002300E6C3940440057600120306D007D006D039
:1000330005D004D003D002D001D000D0D0D082D0DC
:0600430083D0F0D0E03292
:0300A30002083020
:10083000C0E0C0D075D000C000C007B20030002DAD
:10084000786B06E6D3943B40247600786506E6D3C1
:10085000943B40197600786E06E6D39417400E76E6
:10086000007868E625E0FFF6BF80027601D007D069
:0608700000D0D0D0E03200
:070C8F00E5E530E5FBAFE7EE
:010C9600223B
:080C9700E4F5ECF5EBF5F522A4
:0D0C280075B29275B47C43AA0243B201225A
:0D0C350075C61875C28A43AA1043C2012279
:10006E0075E30275E20643E3ECE4F5E475E66743F7
:03007E00A918229C
:080C9F00E5E530E7FB8FE722D9
:0D0C4200759E88759F01759F8143AB04224C
:070CAE0075D928E4F58A2244
:10078F007589FFE4F5D4F592F5E9F5807591F0756B
:10079F00D50FF593F5EAF5887599FEF5D6F594F52D
:1007AF009075A1FFF5D7F595F59875B1FFF5DAF5C9
:1007BF0096F5A075B97FF5DBF59AF5B075C1F7F52C
:1007CF00DCF59BF5C075ED02F5EEF5EFF5F175F380
:0707DF0018F5F275F40C227D
:1009DB00E53D453C602E786206E6C394324009E45F
:1009EB00F6B201300102B214E53D153D7002153C23
:1009FB0014453C700FE53E600B8000753C00753D67
:050A0B0006E4F53E22A7
:100A4000786BE6FF7874666025A6077865E6FF7820
:100A50006F66601AA6077864E6FF786E66600F78A6
:0F0A600064A607786A06E6C394184002E4F622FB
:1007E600D2057873E6FF7002D207EFB40102D20891
:1007F600EFB40202D209EFB40302D20AEFB4040244
:10080600D20BEFB40502D20CEFB40612785F16E6EF
:100816007003785AF6785E16E67003785CF678739D
:0A08260006E6C3940A4002E4F6223D
:100A6F00786976127866760C786D7601E408F678F8
:100A7F0065F6786BF67864F6786FF67874F6C20DD3
:0E0A8F00D2037872F67862F6D202750D052257
:10096D00120A6F300502C205300708C207120CB516
:10097D001200A6200803300904C208C209300A0576
:10098D00C20A120A9D300B05C20B1209DB300CD3C3
:07099D00C20C120A4080CCDD
:1008B900785AE670FB7F087824E4F608DFFCE4FF49
:1008C9007859E6FEEFC39E501412072EFE74242FAA
:1008D900F8A606740129F9E43AFA0F80E3E4785D91
:0F08E900F6785A7601785DE6062424F8E6F5E7FE
:0108F80022DD
:03009F008F482265
:1009A40020170330183030170DC217751D00751E3F
:1009B40000751F49800BC218751D00751E00751F38
:1009C40051E4FFAB1DAA1EA91F8F82758300E41298
:0609D40007470FBF08ED0C
:0109DA0022FA
:100056001209A47867E6FF785B666007A6077F113A
:0400660012009F22C3
:100A1000E4FFE58820E0030F8019E58820E1047FEA
:100A2000028010E58820E2047F038007E58820E348
:0F0A3000027F04E58820E307E58820E2027F05C6
:010A3F002294
:1004B000E4F52FE5356F600BE5366F60038F36226C
:1004C0008F3522E53565347051E534700302054EF1
:1004D000E531607A1531E5317074853432E530707C
:1004E00003752F01E53314601414601B1460182485
:1004F00003705B753301433220753132227533024C
:1005000043326075311422753303433280753114E0
:10051000E52EC394FA5037052E22E5346025F532D6
:10052000E5307003752F01E53324FE600C14600B79
:100530002402700A433240800580004332C0E4F553
:0F054000338005E4F530F52E753105853534220D
:060CB500120A100204B057
:1000A600E52F7003020305E53224BE70030201C882
:1000B60014700302029F1470030202BB24C360146F
:1000C6001470030201C824FD70030202F524446083
:1000D60003020305E53E24FBB40700400302029A2F
:1000E6009000F475F003A4C58325F0C5837302015F
:1000F6000902012B02013902018C0201990201A6B3
:100106000201B3786906E6D39463400276127866F4
:10011600E6B4020E7869E654037005D20D0201BFFB
:10012600C20D0201BF786616E6C394015002760C32
:100136000201BF786D067866E6FFB4021B300D0C2F
:10014600786DE6D3941D403C76018038786DE6D311
:10015600941C40307601802CEF640460117866E6CA
:10016600FF64066009EF64096004EFB40B0C786D58
:10017600E6D3941E400E7601800A786DE6D3941F6E
:10018600400276018033786E06E6D394174002E487
:10019600F68026786506E6D3943B4002E4F680199D
:1001A600786C06E6D3940840027601800C0518E5C3
:1001B60018D3940A4003751801753C01753DF40285
:1001C600029AE53E24FBB40700400302029A90011E
:1001D600E275F003A4C58325F0C583730201F70217
:1001E600021802022502026102026E02027B02026C
:1001F60088786916E6C39412500276637866E6B488
:10020600020E7869E654037005D20D020294C20DFF
:10021600807C786616E6C394015002760C806F786F
:100226006D16E6C3940150317866E6FFB4020D7888
:100236006D300D04761D8021761C801DEF640460F0
:100246000EEF64066009EF64096004EFB40B0678EC
:100256006D761E8004786D761F8033786E16E6C341
:100266009400500276178026786516E6C3940050EF
:1002760002763B8019786C16E6C394015002760824
:10028600800C1518E518C39401500375180A753CBF
:1002960001753DF47872763222E50DB40504750DCC
:1002A6000322E50DB40304750D0122E50D6401700A
:1002B6004E750D052278727632E53EB405047F064A
:1002C6008036E53EB406047F07802DE53EB407047C
:1002D6007F088024E53EB408047F09801BE53EB410
:1002E60009047F0A8012E53EB40A147F0B8009E5F3
:1002F6002EC3940540097F05120C86E4786BF6221E
:100AEE00EF900AC893FF788430E106E64402F68060
:100AFE0004E654FDF6EF788430E205E64404F6226F
:050B0E00E654FBF62295
:1005CA00EF900AC893FF788130E006E64401F6808E
:1005DA0004E654FEF6EF788130E106E64402F6803E
:1005EA0004E654FDF6EF788130E206E64404F6802C
:1005FA0004E654FBF6EF788130E306E64408F68019
:10060A0004E654F7F6EF788130E406E64410F68003
:10061A0004E654EFF6EF788130E506E64420F680EA
:10062A0004E654DFF6EF20E60330E6077881E64475
:0A063A0040F6227881E654BFF62254
:10064400EF900AC893FF788230E006E64401F68012
:1006540004E654FEF6EF788230E106E64402F680C2
:1006640004E654FDF6EF788230E206E64404F680B0
:1006740004E654FBF6EF788230E306E64408F6809D
:1006840004E654F7F6EF788230E406E64410F68088
:1006940004E654EFF6EF788230E506E64420F6806F
:1006A40004E654DFF6EF788230E605E64440F622AD
:0506B400E654BFF62230
:1006B900EF900AC893FF788330E006E64401F6809C
:1006C90004E654FEF6EF788330E106E64402F6804C
:1006D90004E654FDF6EF788330E206E64404F6803A
:1006E90004E654FBF6EF788330E306E64408F68027
:1006F90004E654F7F6EF788330E406E64410F68012
:1007090004E654EFF6EF788330E506E64420F680F8
:1007190004E654DFF6EF788330E605E64440F62236
:05072900E654BFF622BA
:10030600E4787FF60876FF787E06E6C39405400C0F
:10031600E4F6787C06E694044002E4F6787EE6C3CA
:10032600950D400EE408F6F5900876FF7598FF02E5
:1003360004A6787CE6FF7052787FE64410F678785B
:10034600E6FE30E0067880E654FEF6EE30E106780A
:1003560080E654FDF67878E630E2067880E654FBCF
:10036600F67878E6FE30E3067880E654F7F6EE3067
:10037600E4067880E654EFF67878E620E503020492
:10038600A67880E654DFF60204A6EF64017058787A
:100396007FE64402F67875E6FF30E0067880E6549C
:1003A600FEF6EF30E1067880E654FDF67875E63025
:1003B600E2067880E654FBF67875E6FF30E30678C9
:1003C60080E654F7F6EF30E4067880E654EFF678E8
:1003D60075E630E5067880E654DFF67875E620E6C1
:1003E600030204A60204A0787CE6FF640270547837
:1003F6007FE64404F67876E6FE30E0067880E6543A
:10040600FEF6EE30E1067880E654FDF67876E630C4
:10041600E2067880E654FBF67876E6FE30E3067868
:1004260080E654F7F6EE30E4067880E654EFF67888
:1004360076E630E5067880E654DFF67876E630E64E
:100446005F8057EF64037058787FE64408F6787744
:10045600E6FF30E0067880E654FEF6EF30E10678F7
:1004660080E654FDF67877E630E2067880E654FBBF
:10047600F67877E6FF30E3067880E654F7F6EF3055
:10048600E4067880E654EFF67877E630E50678807D
:10049600E654DFF67877E630E6067880E654BFF66F
:0A04A600787FE6F59008E6F598224D
:010049002294
:100AC8003F065B4F666D7D077F6F005F7C585E74E5
:100AD80006545C50781C6E773979713D76061E385D
:060AE800373F736D3E4034
:0F0BFD00E47881F608F608F608F608F608F622FE
:100086008F1BE51B75F00A84FF6003120AEEE51B61
:0900960075F00A84AFF00205CAFE
:100B75008F1BE51B75F00A84FF120644E51B75F013
:070B85000A84AFF00206B97B
:0D0C4F0075370A75383375392A753A2A222F
:10087600EF14600E24FE600A24F76006240C700C48
:100886008000786EE6F5197865E6F51A30031AE504
:1008960019C3940C5004C2128008D21274F425199C
:1008A600F519E519700375190CAF19120086AF1A00
:0308B600020B75BD
:10093400EF14600E24FE600A24F76006240C70078E
:100944008000786EE6F51930031AE519C3940C504B
:1009540004C2128008D21274F42519F519E519702D
:090964000375190CAF190200869D
:100B1300EF14601124FE600D24F8601014600624A5
:100B23000C700C80007865E6F5198003851819AF01
:040B330019020B7523
:090C74007872E66002D322C3226B
:0C0C6800301303300005E4FF1208762270
:0E0C0C00200105120C745005E4FF1208762238
:100B5700200105120C7450157881E64440201405D5
:0E0B6700F67F148005F67869E6FF120B752202
:100B8C00200105120C7450077866E6FF1200867877
:060B9C006DE6FF020B757F
:100BA200200105120C745007786DE6FF120B757860
:060BB20066E6FF0200866A
:100BB800200105120C7450057F031208767F03028A
:020BC8000B130D
:100BCA00200105120C7450057F031208767F030278
:020BDA000934DC
:100BED00200105120C745007786CE6FF120B75226C
:0E0C1A00200105120C7450057F0B120B1322E3
:01004A002293
:01005200228B
:01006A002273
:01008100225C
:01008200225B
:090C7D008F3E753C03753DE82231
:090C86008F3E753C01753DF4221E
:10054F00E53E12076905A701057F030584050589A7
:10055F0006058E07059308059809059D0A05A20B48
:10056F0005AC0C05B61005B11205BB1C000005C08B
:10057F00120C0C803F120B57803A120B8C803512E5
:10058F000BA28030120BB8802B120BCA8026120BD5
:10059F00ED8021120C1A801C12004A801712005293
:1005AF00801212006A800D1200818008120C4F8099
:0B05BF0003120C687872E6600116223F
:100BDC0030020D7884E620120454F7F6224408F60D
:010BEC0022E6
:100A9D00120BFD12054F120BDC12004953A87F7883
:100AAD0081E67875F67882E67876F67883E678775B
:0B0ABD00F67884E67878F643A88022E3
:10072E00BB010689828A83E0225002E722BBFE02C9
:09073E00E32289828A83E49322FC
:10074700F8BB010DE58229F582E5833AF583E8F0E8
:10075700225006E92582C8F622BBFE05E92582C894
:02076700F2227C
:10076900D083D082F8E4937012740193700DA3A31F
:1007790093F8740193F5828883E473740293686033
:06078900EFA3A3A380DF33
:00000001FF
