:03000000020FB537
:0C0FB50078FFE4F6D8FD758191020E0370
:100E030053A87F12093E12101F1210181210081255
:100E13000F8E120F9B12006E120FA843A880120AA6
:030E2300C680FE88
:03004B000208E7C1
:0B08E700C0E0C0D075D000C000C0070A
:1008F200AFE753E5DF7865760A30191D7863E6C302
:1009020094085007E6062448F8A607EF64557023BA
:100912007863F6D217B219801A7863E6C394085046
:1009220007E6062450F8A607BF550878637600D27A
:0309320018B219DF
:09093500D007D000D0D0D0E03290
:03005300020CA7F5
:100CA700C0E0C0D075D000C00053E57F7859E6603A
:100CB7001C7866760A7864E6062424F8E6F5E77871
:100CC70064E62423F8E6B4550478597600D000D0BA
:040CD700D0D0E03267
:03006B00020BFF86
:100BFF00C0E0C0F0C083C082C0D075D000C000C0BC
:100C0F0001C002C003C004C005C006C007120A36E7
:100C1F00D007D006D005D004D003D002D001D00029
:0B0C2F00D0D0D082D083D0F0D0E032D3
:03008300020A80EE
:100A8000C0E0C0F0C083C082C0D075D000C000C03C
:100A900001C002C003C004C005C006C007788706B5
:100AA000E6C394044005760012039ED007D006D01A
:100AB00005D004D003D002D001D000D0D0D082D055
:060AC00083D0F0D0E0320B
:0300A30002000355
:10000300C0E0C0D075D000C000C007B20030002DE2
:10001300787506E6D3943B40247600786E06E6D3E3
:10002300943B40197600787806E6D39417400E7611
:10003300007871E625E0FFF6BF80027601B20ED0AC
:0800430007D000D0D0D0E0325C
:07100000E5E530E5FBAFE779
:0110070022C6
:100EB900EF6007E5974401FF8005E59754FEFF8F32
:020EC90097226E
:07101800E4F597758FF92242
:08100800E4F5ECF5EBF5F5222F
:0D0F8E0075B29275B47C43AA0243B20122F1
:0D0F9B0075C61875C28A43AA1043C2012210
:10006E0075E30275E20643E3ECE4F5E475E66743F7
:03007E00A918229C
:08101000E5E530E7FB8FE72264
:0D0FA800759E88759F01759F8043AB0422E4
:07101F0075D929E4F58A22CE
:10093E007589FFE4F5D4F592F5E9F5807591F075BA
:10094E00D50FF593F5EAF5887599FEF5D6F594F57C
:10095E009075A1FFF5D7F595F59875B1FFF5DAF518
:10096E0096F5A075B97FF5DBF59AF5B075C1F7F57B
:10097E00DCF59BF5C075ED02F5EEF5EFF5F175F3CF
:07098E0018F5F275F40C22CC
:100F2400E4F50EF514F517FF120EB9E47872F62203
:100C7200E53D453C602E786A06E6C394324009E4BD
:100C8200F6B201300102B214E53D153D7002153C89
:100C920014453C700FE53E600B8000753C00753DCD
:050CA20006E4F53E220E
:100548007875E6FF787E666070A607786EE6FF78B5
:1005580079666065A607E50EB40112E510186670A5
:100568000CE511B50707E5147003751401E50EB421
:100578000119E514B40114E517B4010FE5127878F0
:100588006670088F13EF6003E4F517E50EB40111E8
:10059800E514B4010C786D06E6C3941E4003120FEF
:1005A80024786CE6FF787866600F786CA607787414
:1005B80006E6C394184002E4F6E50E6401703BE5D4
:1005C8001464017035E5177024787206E6C3942820
:1005D80050047F0180217872E6FFC394284009EF18
:1005E80094505004E4FF800FE47872F622E517B4C3
:0B05F8000108E47872F6FF120EB92231
:100A3600D205787DE6FF7002D207EFB40102D20834
:100A4600EFB40202D209EFB40302D20AEFB40402F1
:100A5600D20BEFB40502D20CEFB40612786616E696
:100A660070037859F6786516E670037863F6787D34
:0A0A760006E6C3940A4002E4F622EB
:100D0B0078737612786F760C78777601E408F6783C
:100D1B006EF67875F6786CF67879F6787EF6C20D05
:0E0D2B00D203787CF6786AF6D202750D122299
:100AC600120D0B120881300505C205120881300788
:100AD60008C20712102D1200A6200803300907C20B
:100AE60008C209120056300A05C20A120D39300B27
:100AF60005C20B120C72300CCDC20C12054880C612
:0C0FC10000000000AA000555AA0006551B
:100B06007859E670FB7F087824E4F608DFFCE4FFFA
:100B16007858E6FEEFC39E5014120B46FE74242F3F
:100B2600F8A606740129F9E43AFA0F80E3E478643A
:0F0B3600F6785976017864E6062424F8E6F5E7A8
:010B4500228D
:100C3A007859E670FB7F087824E4F608DFFCE4FFC5
:100C4A00120B46FE74242FF8A606740129F9E43A19
:100C5A00FA0FBF04EBE47864F6785976017864E613
:070C6A00062424F8E6F5E77B
:010C71002260
:10008600EFD394025012EF75F004A424C1F9740F53
:0900960035F0FA7BFF120C3A224E
:1009950020170330184F301716C217E4FF74482F7D
:1009A500F8E6FE745A2FF8A6060FBF08F08014C2A9
:1009B50018E4FF74502FF8E6FE745A2FF8A6060FB8
:1009C500BF08F0785AE6B4AA1308E6B4200E08E684
:1009D500FEB40302D216EEB40102C2167F08785A9D
:0509E500E4F608DFFC50
:0109EA0022EA
:1000560012099530160D7867E6FF6007120086E4F0
:040066007867F6229F
:100CDB00E4FFE58820E0030F8019E58820E1047F1D
:100CEB00028010E58820E2047F038007E58820E37B
:0F0CFB00027F04E58820E307E58820E2027F05F9
:010D0A0022C6
:10060300E4F52FE5356F600BE5366F60038F362217
:100613008F3522E53565347051E53470030206A148
:10062300E531607A1531E5317074853432E5307027
:1006330003752F01E53314601414601B1460182430
:1006430003705B75330143322075313222753302F7
:10065300433260753114227533034332807531148C
:10066300E52EC394FA5037052E22E5346025F53282
:10067300E5307003752F01E53324FE600C14600B25
:100683002402700A433240800580004332C0E4F5FF
:0F069300338005E4F530F52E75310585353422B9
:06102D00120CDB020603B9
:1000A600E52F700302039DE53224BE70030201E2D0
:1000B6001470030202D514700302031324C36014E0
:1000C6001470030201E224FD700302038D244460D0
:1000D6000302039DE53E70057867760122E53E1230
:1000E6000B5F010705012906013707018A080197F9
:1000F6000901A40A01B10B01CD1001BF12000001D4
:10010600DF787306E6D3946340027612786FE6B41E
:10011600020E7873E654037005D20D0201D9C20DA2
:100126000201D9786F16E6C394015002760C0201DB
:10013600D9787706786FE6FFB4021B300D0C787716
:10014600E6D3941D403C760180387877E6D3941C3C
:1001560040307601802CEF64046011786FE6FF640E
:10016600066009EF64096004EFB40B0C7877E6D3F8
:10017600941E400E7601800A7877E6D3941F4002DB
:100186007601804F787806E6D394174002E4F6802D
:1001960042786E06E6D3943B4002E4F680357876E4
:1001A60006E6D394084002760180280518E518D3A0
:1001B600940A4003751801801A0510E510D39417A8
:1001C6004003E4F510800C0511E511D3943B400380
:1001D600E4F511753C01753DF40202D0E53E70056B
:1001E6007867760222E53E120B5F020F05023106A2
:1001F600023F07027B0802880902950A02A20B0247
:10020600BE1002B012000002D0787316E6C3941234
:1002160050027663786FE6B4020E7873E654037084
:1002260005D20D0202CAC20D0202CA786F16E6C3D3
:1002360094015002760C0202CA787716E6C394013E
:100246005031786FE6FFB4020D7877300D04761DD5
:100256008021761C801DEF6404600EEF6406600941
:10026600EF64096004EFB40B067877761E80047895
:1002760077761F804F787816E6C39400500276177B
:100286008042786E16E6C394005002763B8035783D
:100296007616E6C394015002760880281518E518EC
:1002A600C39401500375180A801A1510E510C394FB
:1002B600005003751017800C1511E511C3940050FA
:1002C6000375113B753C01753DF4787C763222E569
:1002D6000EB40113E514B4010E7517017878E6F52E
:1002E60012786EE6F51322E53E600302039DE50DE6
:1002F600B41204750D0A22E50DB40A04750D062222
:10030600E50D6406600302039D750D1222787C7666
:1003160032E53EB405047F06802BE53EB406047F35
:10032600078022E53EB407047F088019E53EB4083D
:10033600047F098010E53EB409047F0A8007E53E84
:10034600B40A097F0B120FF7E47875F6E50EB401CF
:1003560002800AE50EB40108E514B40103020F2475
:10036600E53E70097F12120FF7750E0122E53EB4C5
:1003760012057F10020FF7E53EB4101BE4F53EF5BB
:100386003CF53D787CF622E52EC3940540097F05B1
:08039600120FF7E47875F6225E
:100DDE00EF900DB893FF788E30E106E64402F68070
:100DEE0004E654FDF6EF788E30E205E64404F62272
:050DFE00E654FBF622A3
:10071D00EF900DB893FF788B30E006E64401F6803C
:10072D0004E654FEF6EF788B30E106E64402F680DF
:10073D0004E654FDF6EF788B30E206E64404F680CD
:10074D0004E654FBF6EF788B30E306E64408F680BA
:10075D0004E654F7F6EF788B30E406E64410F680A5
:10076D0004E654EFF6EF788B30E506E64420F6808C
:10077D0004E654DFF6EF20E60330E607788BE64417
:0A078D0040F622788BE654BFF622F6
:10079700EF900DB893FF788C30E006E64401F680C1
:1007A70004E654FEF6EF788C30E106E64402F68064
:1007B70004E654FDF6EF788C30E206E64404F68052
:1007C70004E654FBF6EF788C30E306E64408F6803F
:1007D70004E654F7F6EF788C30E406E64410F6802A
:1007E70004E654EFF6EF788C30E506E64420F68011
:1007F70004E654DFF6EF788C30E605E64440F6224F
:05080700E654BFF622DB
:10080C00EF900DB893FF788D30E006E64401F6804A
:10081C0004E654FEF6EF788D30E106E64402F680ED
:10082C0004E654FDF6EF788D30E206E64404F680DB
:10083C0004E654FBF6EF788D30E306E64408F680C8
:10084C0004E654F7F6EF788D30E406E64410F680B3
:10085C0004E654EFF6EF788D30E506E64420F6809A
:10086C0004E654DFF6EF788D30E605E64440F622D8
:05087C00E654BFF62266
:10039E00E47889F60876FF788806E6C39412400C56
:1003AE00E4F6788606E694044002E4F67888E6C31E
:1003BE00950D400EE408F6F5900876FF7598FF024D
:1003CE00053E7886E6FF70527889E64410F678820C
:1003DE00E6FE30E006788AE654FEF6EE30E1067868
:1003EE008AE654FDF67882E630E206788AE654FB19
:1003FE00F67882E6FE30E306788AE654F7F6EE30BB
:10040E00E406788AE654EFF67882E620E5030205E4
:10041E003E788AE654DFF602053EEF6401705878A6
:10042E0089E64402F6787FE6FF30E006788AE654E5
:10043E00FEF6EF30E106788AE654FDF6787FE63078
:10044E00E206788AE654FBF6787FE6FF30E306781C
:10045E008AE654F7F6EF30E406788AE654EFF6783B
:10046E007FE630E506788AE654DFF6787FE620E60A
:10047E000302053E0205387886E6FF640270547862
:10048E0089E64404F67880E6FE30E006788AE65483
:10049E00FEF6EE30E106788AE654FDF67880E63018
:1004AE00E206788AE654FBF67880E6FE30E30678BC
:1004BE008AE654F7F6EE30E406788AE654EFF678DC
:1004CE0080E630E506788AE654DFF67880E630E698
:1004DE005F8057EF640370587889E64408F6788198
:1004EE00E6FF30E006788AE654FEF6EF30E1067855
:1004FE008AE654FDF67881E630E206788AE654FB09
:10050E00F67881E6FF30E306788AE654F7F6EF30A8
:10051E00E406788AE654EFF67881E630E506788AC6
:10052E00E654DFF67881E630E606788AE654BFF6C2
:0A053E007889E6F59008E6F59822AA
:01004E00228F
:100DB8003F065B4F666D7D077F6F005F7C585E74F2
:100DC80006545C50781C6E773979713D76061E386A
:060DD800373F736D3E4041
:0F0F5400E4788BF608F608F608F608F608F62299
:100E44008F1BE51B75F00A84FF6003120DDEE51BA2
:090E540075F00A84AFF002071DDD
:100E76008F1BE51B75F00A84FF120797E51B75F0BB
:070E86000A84AFF002080C22
:100F1300E4FF120E44E4FF120E76E4F5907598FF99
:010F230022AB
:1009EB00EF14601A24FE600A24F76012240C7014B2
:1009FB0080007878E6F519786EE6F51A8006851092
:100A0B001985111A30031AE519C3940C5004C2123C
:100A1B008008D21274F42519F519E51970037519AC
:0B0A2B000CAF19120E44AF1A020E7639
:100B8500EF14600E24FE600A24F7600D240C700C2F
:100B950080007878E6F519800385101930031AE589
:100BA50019C3940C5004C2128008D21274F425198A
:0E0BB500F519E519700375190CAF19020E44FD
:100D8F00EF14601124FE600D24F8601514600D241B
:100D9F000C70118000786EE6F519800885111980A6
:090DAF0003851819AF19020E7634
:090FE500787CE66002D322C322ED
:0C0FCD00301303300005E4FF1209EB2292
:0E0F7200200105120FE55005E4FF1209EB22E5
:100E2600200105120FE55015788BE6444020140585
:0E0E3600F67F148005F67873E6FF120E762222
:100E8D00200105120FE55007786FE6FF120E44782A
:060E9D0077E6FF020E766D
:100EA300200105120FE550077877E6FF120E7678DA
:060EB3006FE6FF020E4491
:100ECB00200105120FE550057F031209EB7F03028A
:020EDB000D8F79
:100EDD00200105120FE550057F031209EB7F030278
:020EED000B8573
:100F3400200105120FE550077876E6FF120E76229F
:0E0F8000200105120FE550057F0B120D8F2288
:01004F00228E
:01005000228D
:100EEF00200105120FE550057F0C1209EB7F0C0254
:020EFF000D8F55
:100F0100200105120FE550057F0C1209EB7F0C0241
:020F11000B854E
:01005100228C
:090FEE008F3E753C03753DE822BD
:090FF7008F3E753C01753DF422AA
:1006A200E53E120B5F06FA0106D20306D70506DC09
:1006B2000606E10706E60806EB0906F00A06F50B50
:1006C20006FF0C070910070412070E1C000007138F
:1006D200120F72803F120E26803A120E8D80351252
:1006E2000EA38030120ECB802B120EDD8026120F4D
:1006F200348021120F80801C12004F80171200508C
:100702008012120EEF800D120F018008120F13805B
:0B07120003120FCD787CE66001162278
:100BC300300238788EE620120554F7F68003440885
:100BD300F6E50EB40108788EE64401F6800AE50EC8
:100BE3007006788EE654FEF6788EE6300E074420C3
:0C0BF300F64410F62254DFF654EFF62210
:100D3900120F541206A2120BC312004E53A87F7849
:100D49008BE6787FF6788CE67880F6788DE6788180
:0B0D5900F6788EE67882F643A8802230
:100D6400120F24120F137878E6786CF6786EE67812
:100D740079F67877E6786BF6786FE6787AF67873B2
:0B0D8400E6787BF67876E67869F622C8
:100F4400E4F580F588F590F598F5A0F5B0F5C022A4
:0F0F630075D80153AAED53B27F53C27F020F44DA
:07102600758A0243D9042280
:0B0FD900E4781DF6781D06E6B40BF965
:010FE40022EA
:100E5D0053A87F12093E12101F12101812100812FB
:090E6D000F8E120F9B43A8802296
:10088100E59020E060051CE51CD3940A4057751CD7
:100891000C120D64C202120F631210267587011229
:1008A1000FD9E4FFE59020E00DE4FE0EBE10FC0F31
:1008B100EFC3940440EEEFC394045029120E5D7807
:1008C1006CE67878F67879E6786EF6786BE6787784
:1008D100F6787AE6786FF6787BE67873F67869E6EB
:0508E1007876F680B7F7
:0108E60022EF
:100B4600BB010689828A83E0225002E722BBFE02AD
:090B5600E32289828A83E49322E0
:100B5F00D083D082F8E4937012740193700DA3A325
:100B6F0093F8740193F5828883E473740293686039
:060B7F00EFA3A3A380DF39
:00000001FF
