:030000000210E605
:0C10E60078FFE4F6D8FD758196020F2417
:100F240053A87F120A2712113C12113512112512EF
:100F340010BF1210CC12006E1210D943A8801200F8
:030F44000380FE29
:03004B00020A7F27
:0B0A7F00C0E0C0D075D000C000C00770
:100A8A00AFE753E5DF7865760A30131D7863E6C36E
:100A9A0094085007E6062448F8A607EF6455702321
:100AAA007863F6D210B213801A7863E6C3940850BA
:100ABA0007E6062450F8A607BF550878637600D2E1
:030ACA0011B21353
:090ACD00D007D000D0D0D0E032F7
:03005300020DF6A5
:100DF600C0E0C0D075D000C00053E57F7859E660EA
:100E06001C7866760A7864E6062424F8E6F5E77820
:100E160064E62423F8E6B4550478597600D000D069
:040E2600D0D0E03216
:03006B00020D4E35
:100D4E00C0E0C0F0C083C082C0D075D000C000C06B
:100D5E0001C002C003C004C005C006C007120BC10B
:100D6E00D007D006D005D004D003D002D001D000D9
:0B0D7E00D0D0D082D083D0F0D0E03283
:03008300020C0B61
:100C0B00C0E0C0F0C083C082C0D075D000C000C0AF
:100C1B0001C002C003C004C005C006C00730020EED
:100C2B00788B06E6C3940440057600120428D0079F
:100C3B00D006D005D004D003D002D001D000D0D044
:090C4B00D082D083D0F0D0E03259
:0300A300020B77D6
:100B7700C0E0C0D075D000C000C007B20030002F61
:100B8700787906E6D3943B40027600787006E6D380
:100B9700648094BB40197600787C06E6D3941740AE
:100BA7000E76007875E625E0FFF6BF80027601B283
:0A0BB70015D007D000D0D0D0E032F6
:07004300E5E530E5FBAFE746
:01004A002293
:100FD900EF6007E5974401FF8005E59754FEFF8F11
:020FE90097224D
:07113500E4F597758FF92224
:08112500E4F5ECF5EBF5F52211
:0D10BF0075B29275B47C43AA0243B20122BF
:0D10CC0075C61875C28A43AA1043C20122DE
:10006E0075E30275E20643E3ECE4F5E475E66743F7
:03007E00A918229C
:08112D00E5E530E7FB8FE72246
:0D10D900759E88759F01759F8043AB0422B2
:07113C0075D929E4F58A22B0
:100A27007589FFE4F5D4F592F5E9F5807591F075D0
:100A3700D54FF593F5EAF5887599FEF5D6759401C6
:100A4700F59075A1FFF5D7F595F59875B1FFF5DA2E
:100A5700F596F5A075B97FF5DBF59AF5B075C1F791
:100A6700F5DCF59BF5C075ED02F5EEF5EFF5F175E3
:080A7700F318F5F275F40C22EE
:10005600E4F50EF516F5195388BFE4FF120FD9E43F
:040066007876F62290
:100DC100E53D453C602E786A06E6C394324009E46D
:100DD100F6B201300102B21BE53D153D7002153C32
:100DE10014453C700FE53E600B8000753C00753D7D
:050DF10006E4F53E22BE
:1005D2007879E6FF7882666079A6077870E6FF7818
:1005E2007D66606EA607E50EB4011A18E6B5101511
:1005F200E511787066700EE516700A7516013012F4
:100602000478677601E50EB4011AE516B40115E522
:1006120019B40110E514787C667009E515787066E6
:100622007002F519E50EB40111E516B4010C786DEE
:1006320006E6C3941E4003120056786CE6FF787CEF
:1006420066600F786CA607787806E6C394184002B5
:10065200E4F6E50E64017046E51664017040E519A2
:10066200702B438840438840787606E6C39428502E
:10067200047F0180267876E6FFC394284009EF9430
:10068200505004E4FF8014E47876F68011E519B442
:10069200010CE47876F65388BFE4FF120FD9787A1A
:1006A200E6FFB40104751B1622EFB40204751B1594
:1006B20022EFB40304751B1422EFB40404751B1358
:1006C20022EFB40504751B1222EFB40604751B1148
:0906D20022EFB40703751B10228E
:01004E00228F
:100BC100D2057881E6FF7002D207EFB40102D208A4
:100BD100EFB40202D209EFB40302D20AEFB4040265
:100BE100D20BEFB40502D20CEFB40612786616E60A
:100BF10070037859F6786516E670037863F67881A4
:0A0C010006E6C3940A4002E4F6225E
:100D1100787776127873760C787B7601787576061B
:100D2100E4787CF67870F67879F6786CF6787DF66A
:100D31007882F6C20DD203787A7606751B11788017
:0D0D4100F6786AF6D202750D12751A0A22B4
:10000300120D11120959300505C20512095930079D
:1000130008C20712114A1200A6200803300907C2BA
:1000230008C209121033300A05C20A120E5A300BE5
:1000330005C20B120DC1300CCDC20C1205D280C605
:1010550000000000AA000055AA000555AA00065583
:100C54007859E670FB7F087824E4F608DFFCE4FFAB
:100C64007858E6FEEFC39E5014120C94FE74242FA1
:100C7400F8A606740129F9E43AFA0F80E3E47864EB
:0F0C8400F6785976017864E6062424F8E6F5E759
:010C9300223E
:100D89007859E670FB7F087824E4F608DFFCE4FF75
:100D9900120C94FE74242FF8A606740129F9E43A7A
:100DA900FA0FBF04EBE47864F6785976017864E6C3
:070DB900062424F8E6F5E72B
:010DC0002210
:10008600EFD394035012EF75F004A42455F97410BD
:0900960035F0FA7BFF120D8922FE
:1009C40020100330115C301016C210E4FF74482F5D
:1009D400F8E6FE745A2FF8A6060FBF08F08014C27A
:1009E40011E4FF74502FF8E6FE745A2FF8A6060F90
:1009F400BF08F0785AE664AA701F08E6B4201A0803
:100A0400E6FEB40302D20FEEB40102C20FEEB40448
:100A140002C212EEB40502D2127F08785AE4F60834
:020A2400DFFCF5
:010A260022AD
:101033001209C47867E6FF6007120086E47867F652
:01104300228A
:100E2A00E4FFE58820E0030F8019E58820E1047FCC
:100E3A00028010E58820E2047F038007E58820E32A
:0F0E4A00027F04E58820E307E58820E2027F05A8
:010E59002276
:1006DB00E4F52FE5356F600BE5366F60038F36223F
:1006EB008F3522E53565347051E534700302077997
:1006FB00E531607A1531E5317074853432E530704F
:10070B0003752F01E53314601414601B1460182457
:10071B0003705B753301433220753132227533021E
:10072B0043326075311422753303433280753114B3
:10073B00E52EC394FA5037052E22E5346025F532A9
:10074B00E5307003752F01E53324FE600C14600B4C
:10075B002402700A433240800580004332C0E4F526
:0F076B00338005E4F530F52E75310585353422E0
:06114A00120E2A0206DB72
:1000A600E52F7003020427E53224BE70030201EF38
:1000B6001470030202E814700302039524E170032E
:1000C60002039024E260141470030201EF24FD7011
:1000D6000302041724446003020427E53E700578F2
:1000E60067760222E53E120CAD010E0501300601CF
:1000F6003E07019108019E0901AD0A01BA0B01D81C
:100106001001C812000001EC787706E6D39463402C
:100116000276127873E6B4020E7877E65403700519
:10012600D20D0201E6C20D0201E6787306E6D3940B
:100136000C400276010201E6787B067873E6FFB48E
:10014600021B300D0C787BE6D3941D403C76018073
:1001560038787BE6D3941C40307601802CEF64041B
:1001660060117873E6FF64066009EF64096004EFC6
:10017600B40B0C787BE6D3941E400E7601800A7889
:100186007BE6D3941F400276018055787C06E6D341
:1001960094174002E4F68048787006E6D3648094AB
:1001A600BB4002E4F68039787A06E6D3940740022B
:1001B6007601802C051AE51AD3940A4003751A01B4
:1001C600801E0510D3E510648094974003E4F51073
:1001D600800E0511D3E511648094BB4003E4F5114C
:1001E600753C01753DF40202E3E53E7005786776DD
:1001F6000322E53E120CAD021C05023E06024C0728
:1002060002880802950902A40A02B10B02CF100265
:10021600BF12000002E3787716E6C3941250027606
:10022600637873E6B4020E7877E654037005D20D50
:100236000202DDC20D0202DD787316E6C394015098
:1002460002760C0202DD787B16E6C3940150317803
:1002560073E6FFB4020D787B300D04761D8021769F
:100266001C801DEF6404600EEF64066009EF6409EC
:100276006004EFB40B06787B761E8004787B761FCD
:100286008055787C16E6C39400500276178048782D
:100296007016E6C3648094805002763B8039787A83
:1002A60016E6C3940150027607802C151AE51AC388
:1002B60094015003751A0A801E1510C3E510648058
:1002C60094805003751017800E1511C3E5116480D4
:1002D6009480500375113B753C01753DF47880762A
:1002E6003222E50E6401707CE5166401707675199C
:1002F600017870E6FFC3648094B2500B787CE6F513
:1003060014E51A2FF515227870E6FFC3648094B2BF
:100316005003020427E51AFD7C00EF3395E0FEEF5B
:100326002DFFEC3EFEC3EF943CEE648094804019B2
:10033600E6251A24C4F515787CE604F514D394173B
:100346005003020427E4F51422C3EF943CEE6480C4
:1003560094804003020427787CE6F5147870E6253D
:100366001AF51522E53E6003020427E50DB41204D2
:10037600750D0A22E50DB40A04750D0622E50D6415
:10038600066003020427750D12227867760122782B
:10039600807632E53EB405047F06802BE53EB40642
:1003A600047F078022E53EB407047F088019E53EF6
:1003B600B408047F098010E53EB409047F0A80076B
:1003C600E53EB40A097F0B12111CE47879F6E50EB6
:1003D600B40106E53E7002800AE50EB40108E51692
:1003E600B40103020056E53E700DE50E70097F125A
:1003F60012111C750E0122E53EB412057F10021182
:100406001CE53EB4101BE4F53EF53CF53D7880F660
:1004160022E52EC3940540097F0512111CE4787964
:02042600F622BC
:100EFF00EF900ED993FF789230E106E64402F68028
:100F0F0004E654FDF6EF789230E205E64404F6224B
:050F1F00E654FBF62280
:1007F500EF900ED993FF788F30E006E64401F6803E
:1008050004E654FEF6EF788F30E106E64402F68002
:1008150004E654FDF6EF788F30E206E64404F680F0
:1008250004E654FBF6EF788F30E306E64408F680DD
:1008350004E654F7F6EF788F30E406E64410F680C8
:1008450004E654EFF6EF788F30E506E64420F680AF
:1008550004E654DFF6EF20E60330E607788FE6443A
:0A08650040F622788FE654BFF62219
:10086F00EF900ED993FF789030E006E64401F680C2
:10087F0004E654FEF6EF789030E106E64402F68087
:10088F0004E654FDF6EF789030E206E64404F68075
:10089F0004E654FBF6EF789030E306E64408F68062
:1008AF0004E654F7F6EF789030E406E64410F6804D
:1008BF0004E654EFF6EF789030E506E64420F68034
:1008CF0004E654DFF6EF789030E605E64440F62272
:0508DF00E654BFF62203
:1008E400EF900ED993FF789130E006E64401F6804C
:1008F40004E654FEF6EF789130E106E64402F68011
:1009040004E654FDF6EF789130E206E64404F680FE
:1009140004E654FBF6EF789130E306E64408F680EB
:1009240004E654F7F6EF789130E406E64410F680D6
:1009340004E654EFF6EF789130E506E64420F680BD
:1009440004E654DFF6EF789130E605E64440F622FB
:05095400E654BFF6228D
:10042800E4788DF60876FF788C06E6C39412400CC3
:10043800E4F6788A06E694044002E4F6788CE6C38B
:10044800950D400EE408F6F5900876FF7598FF02C2
:1004580005C8788AE6FF7052788DE64410F67886EB
:10046800E6FE30E006788EE654FEF6EE30E10678D9
:100478008EE654FDF67886E630E206788EE654FB82
:10048800F67886E6FE30E306788EE654F7F6EE3028
:10049800E406788EE654EFF67886E620E503020552
:1004A800C8788EE654DFF60205C8EF640170587804
:1004B8008DE64402F67883E6FF30E006788EE6544F
:1004C800FEF6EF30E106788EE654FDF67883E630E6
:1004D800E206788EE654FBF67883E6FF30E306788A
:1004E8008EE654F7F6EF30E406788EE654EFF678A9
:1004F80083E630E506788EE654DFF67883E620E674
:10050800030205C80205C2788AE6FF6402705478BF
:100518008DE64404F67884E6FE30E006788EE654EC
:10052800FEF6EE30E106788EE654FDF67884E63085
:10053800E206788EE654FBF67884E6FE30E3067829
:100548008EE654F7F6EE30E406788EE654EFF67849
:1005580084E630E506788EE654DFF67884E630E601
:100568005F8057EF64037058788DE64408F6788505
:10057800E6FF30E006788EE654FEF6EF30E10678C6
:100588008EE654FDF67885E630E206788EE654FB72
:10059800F67885E6FF30E306788EE654F7F6EF3016
:1005A800E406788EE654EFF67885E630E506788E30
:1005B800E654DFF67885E630E606788EE654BFF630
:0A05C800788DE6F59008E6F598221C
:01004F00228E
:100ED9003F065B4F666D7D077F6F005F7C585E74D0
:100EE90006545C50781C6E773979713D76061E3848
:060EF900373F736D3E401F
:0F108500E4788FF608F608F608F608F608F62263
:100F67008F1EE51E75F00A84FF6003120EFFE51E53
:090F770075F00A84AFF00207F5E1
:100F80008F1EE51E75F00A84FF12086FE51E75F0CE
:070F90000A84AFF00208E43F
:10104400E4FF120F67E4FF120F80E4F5907598FF38
:011054002279
:100B2C00EF14601A24FE600A24F76012240C70146F
:100B3C008000787CE6F51C7870E6F51D8006851043
:100B4C001C85111D30031AE51CC3940C5004C219EA
:100B5C008008D21974F4251CF51CE51C7003751C57
:0B0B6C000CAF1C120F67AF1D020F80C2
:100CD300EF14600E24FE600A24F7600D240C700CE0
:100CE3008000787CE6F51C800385101C30031AE530
:100CF3001CC3940C5004C2198008D21974F4251C27
:0E0D0300F51CE51C7003751C0CAF1C020F677D
:100EB000EF14601124FE600D24F8601514600D24F9
:100EC0000C701180007870E6F51C800885111C807C
:090ED00003851A1CAF1C020F80FF
:09110A007880E66002D322C322C2
:0C10F200301A03300005E4FF120B2C2222
:0E10A30020010512110A5005E4FF120B2C2249
:100F970020010512110A500D788FE64440F6787744
:060FA700E6FF120F80229C
:100FAD0020010512110A50077873E6FF120F6778BA
:060FBD007BE6FF020F803D
:100FC30020010512110A5007787BE6FF120F807883
:060FD30073E6FF020F6748
:100FEB0020010512110A50057F03120B2C7F0302FF
:020FFB000EB036
:100FFD0020010512110A50057F03120B2C7F0302ED
:02100D000CD302
:1010650020010512110A5007787AE6FF120F802237
:0E10B10020010512110A50057F0B120EB0220D
:01005000228D
:01005100228C
:10100F0020010512110A50057F0C120B2C7F0C02C8
:02101F000EB011
:1010210020010512110A50057F0C120B2C7F0C02B6
:021031000CD3DE
:01005200228B
:091113008F3E753C03753DE82296
:09111C008F3E753C01753DF42283
:10077A00E53E120CAD07D20107AA0307AF0507B47D
:10078A000607B90707BE0807C30907C80A07CD0B3A
:10079A0007D70C07E11007DC1207E61C000007EB7D
:1007AA001210A3803F120F97803A120FAD803512B4
:1007BA000FC38030120FEB802B120FFD8026121010
:1007CA006580211210B1801C12005080171200514E
:1007DA00801212100F800D1210218008121044800E
:0B07EA00031210F27880E66001162276
:100AD6003002527892E620190554F7F6800344084E
:100AE600F6E50E64016005E53EB40B087892E6442F
:100AF60001F6800AE50E70067892E654FEF6301589
:100B060011E53E6405600BE53E64066005E53EB40E
:100B1600070A7892E654DFF654EFF6227892E64416
:060B260020F64410F62247
:100E5A0012108512077A120AD612004F53A87F7809
:100E6A008FE67883F67890E67884F67891E6788546
:0B0E7A00F67892E67886F643A8802206
:100E8500120056121044787CE6786CF67870E67895
:100E95007DF6787BE6786BF67873E6787EF678777C
:0B0EA500E6787FF6787AE67869F6229E
:10107500E4F580F588F590F598F5A0F5B0F5C02272
:0F10940075D80153AAED53B27F53C27F02107576
:07114300758A0243D9042262
:0B10FE00E47896F6789606E6B40BF94D
:0111090022C3
:100F4700120A2712113C1211351211251210BF1265
:100F570010CC12006E1210D9D202D20343A88022FD
:10095900E59020E065051FE51FD3940A405C751FEB
:100969000C120E85C202E4F53EF53CF53D121094D9
:100979001211437587011210FEE4FFE59030E00D76
:10098900E4FE0EBE10FC0FEFC3940440EEEFC394D7
:100999000440E0120F47786CE6787CF6787DE678BB
:1009A90070F6786BE6787BF6787EE67873F6787F72
:0A09B900E67877F67869E6787AF6BA
:0109C3002211
:100C9400BB010689828A83E0225002E722BBFE025E
:090CA400E32289828A83E4932291
:100CAD00D083D082F8E4937012740193700DA3A3D6
:100CBD0093F8740193F5828883E4737402936860EA
:060CCD00EFA3A3A380DFEA
:00000001FF
